:100000000C94FB020C944F220C9428220C946A242A
:100010000C9407240C9496230C947F230C94CE22EA
:100020000C9423030C942F230C9423030C9423038C
:100030000C9423030C9459230C9423030C94230352
:100040000C94DE210C9423030C949C220C947622B5
:100050000C9423030C9406230C9423030C94230385
:100060000C9423030C9423033000303000303030E4
:100070000030303030003030303030003030303010
:1000800030300030303030303030000A000A00208C
:100090002D20002000200020002000200020004112
:1000A00063746976617465204379636C65204D7370
:1000B00067004465616374697661746520437963A0
:1000C0006C65204D7367000A00000000000000000E
:1000D00000021405050000000002011401000000E8
:1000E0000000000000000000000201040000000009
:1000F00000060305010101010A06010700000600D0
:100100000A020602020000000000000000000000D9
:1001100000021405050000000002011401000000A7
:1001200000020104000000000000000000000000C8
:1001300000060305010101010A060101010501058F
:100140000A02060202000000002D3E200050726FDD
:1001500063657373204368616C6C656E6765202D01
:10016000204B65793A2000007761697441636B3AEE
:1001700020003C2D2000082021220100206C6F6E01
:100180006772656C656173656400206C6F6E677083
:1001900072657373656400206465626F756E636574
:1001A000002070726573736564002072656C656110
:1001B00073656400424F4F544C4F414445520020F8
:1001C00000496E6465783A20004E6577204B65796A
:1001D0003A20004841564520444154410069676E29
:1001E0006F726520002D3E2000000000000000001E
:1001F00000021405050000000002010A01000000D1
:1002000000000000000000000000000000000000EE
:1002100000060305010101010A06010101050105AE
:100220000A02060202000000005245534554002D08
:100230003E200077616974466F7241657352657341
:10024000706F6E7365206661696C656400536967E1
:100250006E6174757265204641494C45440053698E
:10026000676E6174757265204F4B003C2D20000A4B
:10027000005061636B657420746F6F206269673A28
:100280002000435243204661696C656400436F6EF1
:1002900066696720467265713A20307832310020F5
:1002A0002D2072656164790043432056657273693D
:1002B0006F6E3A2000002E0206030D04E905CA07FE
:1002C0000C0B060D210E650F6A10C8119312031551
:1002D000341733181819161B431E2F1F6520782357
:1002E000E9242A251F26113E033100434320696E6D
:1002F0006974000A00496E69742053746F726167F3
:10030000653A2000090A0B0C1410120A00202D2057
:1003100000416464726573732053706163653A20B1
:100320000041736B53696E2B2B2056342E312E33C4
:1003300020284D6179202031203230323020323176
:100340003A34393A303229000000000024002700F6
:100350002A0000000000250028002B0000000008F3
:10036000000201000003040700000000000000007C
:1003700020726561643A2000206578706563746559
:10038000643A20004572726F722061742000520935
:100390006AD53036A538BF40A39E81F3D7FB7CE3F6
:1003A00039829B2FFF87348E4344C4DEE9CB547BD4
:1003B0009432A6C2233DEE4C950B42FAC34E082E52
:1003C000A16628D924B2765BA2496D8BD12572F83B
:1003D000F66486689816D4A45CCC5D65B6926C70A1
:1003E0004850FDEDB9DA5E154657A78D9D8490D82B
:1003F000AB008CBCD30AF7E45805B8B34506D02C43
:100400001E8FCA3F0F02C1AFBD0301138A6B3A9121
:1004100011414F67DCEA97F2CFCEF0B4E67396ACA9
:100420007422E7AD3585E2F937E81C75DF6E47F1D8
:100430001A711D29C5896FB7620EAA18BE1BFC561A
:100440003E4BC6D279209ADBC0FE78CD5AF41FDD30
:10045000A8338807C731B11210592780EC5F60516B
:100460007FA919B54A0D2DE57A9F93C99CEFA0E0AD
:100470003B4DAE2AF5B0C8EBBB3C83539961172BBB
:10048000047EBA77D626E169146355210C7D0102FA
:100490000408102040801B36637C777BF26B6FC5AD
:1004A0003001672BFED7AB76CA82C97DFA5947F077
:1004B000ADD4A2AF9CA472C0B7FD9326363FF7CC53
:1004C00034A5E5F171D8311504C723C31896059AF0
:1004D000071280E2EB27B27509832C1A1B6E5AA013
:1004E000523BD6B329E32F8453D100ED20FCB15BFE
:1004F0006ACBBE394A4C58CFD0EFAAFB434D338567
:1005000045F9027F503C9FA851A3408F929D38F53A
:10051000BCB6DA2110FFF3D2CD0C13EC5F97441771
:10052000C4A77E3D645D197360814FDC222A9088E8
:1005300046EEB814DE5E0BDBE0323A0A4906245C74
:10054000C2D3AC629195E479E7C8376D8DD54EA9D9
:100550006C56F4EA657AAE08BA78252E1CA6B4C6A5
:10056000E8DD741F4BBD8B8A703EB5664803F60EFE
:10057000613557B986C11D9EE1F8981169D98E94ED
:100580009B1E87E9CE5528DF8CA1890DBFE6426806
:1005900041992D0FB054BB16000000002300260027
:1005A00029000001020304050607000102030405F7
:1005B0000001020304050404040404040404020208
:1005C00002020202030303030303010204081020D2
:1005D0004080010204081020010204081020A9B87C
:1005E000C77061706161396238633700F209108049
:1005F0000100F124332C11241FBECFEFD8E0DEBF61
:10060000CDBF11E0A0E0B1E0E8EFFDE502C005904C
:100610000D92AA3CB107D9F724E0AAECB1E001C0E1
:100620001D92AF38B207E1F712E0CAEFD2E004C082
:100630002197FE010E94A72DC93FD107C9F70E944B
:1006400053260C94EF2E0C94000090E0FC01E6532E
:10065000FA4F2491FC01EA54FA4F3491323089F573
:1006600040910E02422B40930E0240910B02422B0E
:1006700040930B028E559A4FFC01A491323079F5CC
:10068000B0E0AA0FBB1FA350BE4F6D937C93ECE963
:10069000F5E0A591B4918C918093FC018BE690E0FC
:1006A0009093FB018093FA018091680081608093B0
:1006B0006800A091FA01B091FB01EC912E2B2C93D4
:1006C0000895333009F03FC040910D02422B409312
:1006D0000D0240910A02422B40930A02CBCF3330E5
:1006E000C1F4B0E0AA0FBB1FA251BE4F6D937C9323
:1006F000EEE9F5E0A591B4918C918093ED018CE643
:1007000090E09093FB018093FA01809168008260F1
:10071000CECF343071F6B0E0AA0FBB1FA352BE4F4C
:100720006D937C93E0EAF5E0A591B4918C91809370
:10073000DC018DE690E09093FB018093FA018091BB
:1007400068008460B4CF343009F094CF40910C023B
:10075000422B40930C0240910902422B4093090224
:1007600089CF833081F028F4813099F08230A9F06C
:1007700008958730A9F08830C9F08430B1F48091B1
:1007800080008F7D03C0809180008F7780938000F0
:10079000089584B58F7784BD089584B58F7DFBCF90
:1007A0008091B0008F778093B00008958091B00061
:1007B0008F7DF9CFCF93DF93282F30E0F901E45AF2
:1007C000FC4F8491F901E653FA4FD491F901EA54B0
:1007D000FA4FC491CC23A1F081110E94B103EC2FF8
:1007E000F0E0EE0FFF1FE856FA4FA591B491EC919F
:1007F000ED2381E090E009F480E0DF91CF9108954E
:1008000080E090E0FACF1F93CF93DF93282F30E062
:10081000F901E45AFC4F8491F901E653FA4FD4915F
:10082000F901EA54FA4FC491CC23A9F0162F811193
:100830000E94B103EC2FF0E0EE0FFF1FEE5AFC4FC9
:10084000A591B4918FB7F894EC91111108C0D0958F
:10085000DE23DC938FBFDF91CF911F910895DE2BB4
:10086000F8CFCF93DF9390E0FC01E653FA4F249149
:100870008A549A4FFC0184918823C9F090E0880F34
:10088000991FFC01E85BFC4FA591B491FC01EE5A65
:10089000FC4FC591D49161110DC09FB7F8948C9114
:1008A000209582238C938881282328839FBFDF9102
:1008B000CF910895623051F49FB7F8943C91822F04
:1008C000809583238C93E8812E2BEFCF8FB7F894FC
:1008D000EC912E2B2C938FBFEACF8FEF08956A30C7
:1008E00050F4FC01808191810496F6E06F9F800DA9
:1008F000911D1124089590E080E008950895AF922D
:10090000BF92CF92DF92EF92FF920F931F93CF93FC
:10091000DF936C017B018B01040F151FEB015E015E
:10092000AE18BF08C017D10759F06991D601ED91F3
:10093000FC910190F081E02DC6010995892B79F792
:10094000C501DF91CF911F910F91FF90EF90DF9044
:10095000CF90BF90AF900895FC01538D448D252F0B
:1009600030E0842F90E0821B930B541710F0CF9649
:10097000089501970895FC01918D828D981761F07B
:10098000A28DAE0FBF2FB11D5D968C91928D9F5F92
:100990009F73928F90E008958FEF9FEF0895FC0171
:1009A000918D828D981731F0828DE80FF11D858D24
:1009B00090E008958FEF9FEF0895FC01918D228DB7
:1009C000892F90E0805C9F4F821B91098F7399273C
:1009D00008958FE092E00E94DD0421E0892B09F464
:1009E00020E0822F089580E090E0892B29F00E947A
:1009F000E90481110C9400000895FC01A48DA80F56
:100A0000B92FB11DA35ABF4F2C91848D90E0019650
:100A10008F739927848FA689B7892C93A089B18970
:100A20008C91837080648C93938D848D981306C011
:100A30000288F389E02D80818F7D80830895EF9275
:100A4000FF920F931F93CF93DF93EC0181E0888F88
:100A50009B8D8C8D98131AC0E889F989808185FF58
:100A600015C09FB7F894EE89FF896083E889F989FA
:100A700080818370806480839FBF81E090E0DF91FC
:100A8000CF911F910F91FF90EF900895F62E0B8D4F
:100A900010E00F5F1F4F0F731127E02E8C8D8E110A
:100AA0000CC00FB607FCFACFE889F989808185FF71
:100AB000F5CFCE010E94FD04F1CFEB8DEC0FFD2FA1
:100AC000F11DE35AFF4FF0829FB7F8940B8FEA892C
:100AD000FB8980818062CFCF0F931F93CF93DF93E9
:100AE0008C01D0E0C0E0F801EC0FFD1F649166239B
:100AF00041F08FE092E00E941F05892B11F02196B2
:100B0000F2CFCE01DF91CF911F910F910895CF9336
:100B1000DF93EC01888D8823B9F0AA89BB89E88925
:100B2000F9898C9185FD03C0808186FD0DC00FB6CB
:100B300007FCF7CF8C9185FFF2CF808185FFEDCF49
:100B4000CE010E94FD04E9CFDF91CF910895CF93AC
:100B5000DF9300D000D0CDB7DEB7FC018081898360
:100B600084818A8380858B8384858C8370E0A1E077
:100B7000B0E0AC0FBD1FA60FB71F8C918083DB01C7
:100B80001196A370BB2781E090E08C0F9D1FA80FEA
:100B9000B91F8C918483DB011296A370BB2781E07F
:100BA00090E08C0F9D1FA80FB91F8C9180876D5FFF
:100BB0007F4F63707727A1E0B0E0AC0FBD1F6A0FD5
:100BC0007B1FDB018C9184870F900F900F900F900B
:100BD000DF91CF910895CF93DF9300D000D0CDB7B0
:100BE000DEB7FC018081898384818A8380858B8341
:100BF00084858C8370E0AA27BB27A61BB70BA37044
:100C0000BB2781E090E08C0F9D1FA80FB91F8C912E
:100C10008083A5E0B0E0A61BB70BA370BB2781E0E3
:100C200090E08C0F9D1FA80FB91F8C918483A6E0C4
:100C3000B0E0A61BB70BA370BB2781E090E08C0F40
:100C40009D1FA80FB91F8C91808760957095637068
:100C50007727A1E0B0E0AC0FBD1F6A0F7B1FDB015F
:100C60008C9184870F900F900F900F90DF91CF9110
:100C700008954115510529F4EAE7F0E080818F7766
:100C800080836A307105B9F0CB01880F991F880FF6
:100C9000991F807267706860682B88E10FB6F894BE
:100CA000A895809360000FBE60936000E0E6F0E0DE
:100CB000808180648083232BD9F483B7817F846013
:100CC00083BFF89483B7816083BF85B7806685BF93
:100CD0008F7D85BF7894889583B78E7F83BF789406
:100CE000452B29F4EAE7F0E080818068808308954D
:100CF00083B7817F846083BFF89483B7816083BFAB
:100D00007894889583B78E7F83BF7894E9CF61E02C
:100D10008AE00C9403048EBD0DB407FEFDCF8EB5A2
:100D200008958CE00E94DA038111FBCF089560E002
:100D30008AE00C940304CF93C82F0E9497060E9468
:100D400091068C2F0E948B06C82F0E9487068C2F3D
:100D5000CF91089586E30E949B068DE30E949B0637
:100D60008AE30C949B06CF93DF93D82FC62F0E9463
:100D700097060E9491068D2F8C2B0E948B0680E097
:100D80000E948B06C82F0E9487068C2FDF91CF917F
:100D90000895CF93DF93FC018091D1019091D2010E
:100DA000C081CE0FDF2FD11DC29664E670E00E9495
:100DB0007F2D698380818F5F8083DF91CF9108953C
:100DC0008FB7F8941092CB011092CA0121E037E05E
:100DD0003093CD012093CC018FBFECE7F0E0808110
:100DE0008073808380818064808380818E60808333
:100DF000EAE7F0E080818F60808380818064808377
:100E000008958091CA019091CB0101969093CB01F6
:100E10008093CA018091CA019091CB010B9730F168
:100E2000209178003091790050E040E060E070E37C
:100E300081E190E00E94F62C8091D1019091D20145
:100E4000892B29F43093D2012093D1010FC08091D6
:100E5000D1019091D201280F391F369527958091A5
:100E6000D1019091D2012817390760F38091CC010C
:100E70009091CD01892B29F080917A008064809334
:100E80007A0008958FB7F8941092CD011092CC019A
:100E90008FBF80917A00877E80937A0080917A005C
:100EA00086FDFCCF0C940107EFE6F0E080818160C5
:100EB00080830895FC01108608950895FC018289BD
:100EC000938961E0911101C060E00C9403040895DE
:100ED000DC015B962C9140E021114EE02091D10184
:100EE0003091D201DC011896ED91FC910280F381E2
:100EF000E02DC901C29664E670E00E947F2D82A5B4
:100F0000681718F080E0842B089580E8FCCFE0910A
:100F1000CE01F091CF018485811102C081E08387E9
:100F20000895811104C0EAE7F1E0849108958FEFFC
:100F300008958FEF0895843030F4E82FF0E0EA58F8
:100F4000FE4F849108958FEF08950895089580E0ED
:100F50000895CF93DF93EC01CB014A3058F4642F0E
:100F600004960E946F04049699838883CE01DF91D2
:100F7000CF91089590E080E0F7CF873030F4E82FEC
:100F8000F0E0EC5FFC4F849108958FEF0895089591
:100F900008950895089508950F931F93CF93DF93B5
:100FA00028E731E0FC01318320838C010D5E1E4F68
:100FB00079F0EC01C65CDE4F0C171D0749F0A797CE
:100FC000E881F9810280F381E02DCE010995F4CF0B
:100FD000DF91CF911F910F91089524E831E0FC013A
:100FE000318320830C94CC07089508950C946C05EC
:100FF0000E94F60787EC90E00C94F6070F931F937E
:10100000CF938C01C62F87E991E06430A1F058F4AA
:101010008AEA91E0623079F081EA91E0633059F038
:101020008BE791E008C08AE891E0653021F08CE719
:1010300091E06630A9F70E94F807C770F801808533
:10104000887FC82BC087CF911F910F91089520E909
:1010500031E0FC01318320830C94ED07982FFB01D4
:1010600080E02491291729F08F5F31964813F9CF3A
:101070008FEF089541E06AE771E00C942E0844E098
:1010800066E771E00C942E080C943F0847E064E09A
:1010900073E00C942E080C944608862728E0BC01C7
:1010A00076956795AC014170552780FF02C041E0FD
:1010B00050EACB0184279527215089F70895DC0158
:1010C00050E0681B790B9D01281B390B241735074D
:1010D00034F4FB01EA0FFB1FE491ED93F4CF089584
:1010E00043E06CEF7FE70C945F08FC0110821182F3
:1010F000128213821682158214821186108617823C
:10110000128613860895FC018081811109C08181B6
:10111000811106C081E09281911103C080E00895A1
:1011200081E00895DC01FB019C91808198130BC044
:1011300011969C9111978181981305C081E01296B8
:101140002C919281291380E008950F931F93CF93E0
:10115000DF9300D01F92CDB7DEB78C011B821A82BD
:101160001982CE0101960E947008BE016F5F7F4F09
:10117000C8010E9492080F900F900F90DF91CF91BD
:101180001F910F910895CF93DF93EC01FB018081B4
:101190008F83818188878281898765EB72E0CF01A7
:1011A0000E949208882321F08A818F7D84608A833F
:1011B000DF91CF910895FC013381FB01238132132C
:1011C00002C00C94920880E00895CF93DF9300D082
:1011D00000D0CDB7DEB7FC018089948599839585D1
:1011E0009A8396859B838C83882389F0BF01645FF3
:1011F0007F4FCE0101960E94DB08811108C082E07A
:101200000F900F900F900F90DF91CF91089581E094
:10121000F7CF2FB7F894FC01808191812FBF0895FB
:10122000FF920F931F93CF93DF93EC018B01FFB6D7
:10123000F8940E9409099C019FB7F894F801318342
:1012400020839FBF8FB7F894198308838FBFFFBE99
:10125000DF91CF911F910F91FF9008956F927F9230
:101260008F92DF92EF92FF920F931F93CF93DF93B2
:101270007B0122E0E20EF11CDB0115962D913D91E0
:101280004C91232B242B09F44FC0EB018C01DFB6CA
:10129000F8949C819F7090619C83C8010E94090909
:1012A000009709F43EC0FC013297A1F0658076807A
:1012B00087802D813E814F81CF0102966216730691
:1012C000840650F42619370948092D833E834F833D
:1012D0008C01E4CF90E080E02FB7F8949B838A8361
:1012E0002FBF8FB7F894D801ED92FC928FBF309743
:1012F00061F085819681A7812D813E814F81821B7E
:10130000930BA40B85839683A783DFBEDF91CF91D8
:101310001F910F91FF90EF90DF908F907F906F90D3
:101320000895F0E0E0E0D8CFB7010296DF91CF91C9
:101330001F910F91FF90EF90DF908F907F906F90B3
:101340000C941009CF93DF93EC01CB0120E03DED2D
:101350004DE62D833E834F83BE010E942E09888572
:10136000998521E0DC01AA5FBE4F875F9E4F3C91CB
:10137000321740F0EC01E881F98132853160328723
:101380002F5FF5CFDF91CF9108951F93CF93DF9318
:10139000EC01FB012885922F9770943079F040F48E
:1013A000923051F0933039F1DF91CF911F91089530
:1013B000953009F19630C1F711E012C023FD21C02C
:1013C0002A853B852550310913E02115310541F06F
:1013D00040E02D833E834F83BE01CF010E942E0942
:1013E000E881F9810680F781E02D612FCE01DF9140
:1013F000CF911F91099423FDD7CF2A853B8515E016
:10140000E4CF25E030E012E0E3CFFF920F931F938B
:10141000CF93DF93EC018B01E889FF24F394FE0E58
:10142000F88AE80FF92FF11D228530E0A4E6B0E03C
:101430000E94182D2AE030E040E050E00E94F62C97
:101440002D833E834F83F0FE11C08A899B8960E023
:10145000911101C061E00E940304BE01C801DF9147
:10146000CF911F910F91FF900C942E09CE010E94F5
:101470005E07F3CFEF92FF920F931F93CF93DF930B
:10148000EC01FFB6F8940E9409098C01892B71F0D8
:10149000EFB6F894CE010E9409090E9409099C0147
:1014A0009FB7F894398328839FBFEFBEFFBEC80162
:1014B000DF91CF911F910F91FF90EF900895BF9210
:1014C000CF92DF92EF92FF920F931F93CF93DF9310
:1014D000EC01FFB6F8948C818F708C838DEB92E0D9
:1014E0000E9409090097C9F19C01225031098DEB36
:1014F00092E02115310589F189010E5F1F4FC21756
:10150000D30709F50E943A0AC8010E940909009709
:1015100079F0FC01329761F085819681A7812D8158
:101520003E814F81820F931FA41F85839683A783DB
:10153000FFBEDF91CF911F910F91FF90EF90DF9051
:10154000CF90BF900895C8010E940909009729F023
:101550009C0122503109C801CCCF6E0182E0C80E37
:10156000D11CEFB6F894BFB6F8948FEB92E00E94CE
:101570000909EC012FEB32E0209779F010E000E050
:10158000CC16DD0609F48901CE010E9409099E01ED
:101590000115110521F4EC01EFCF10E000E0BFBE12
:1015A0000115110511F4EFBEC3CFC8010E943A0A1C
:1015B000FACFCF93DF93C091E203D091E303CE0142
:1015C0000E945F0ABE018DEB92E0DF91CF910C94F7
:1015D0002E09EF92FF920F931F93CF93DC01189681
:1015E0000D911C91F80181850E94DA03D8011896AB
:1015F000CC911897C3FBEE24E0F8F12C8E151F0454
:10160000C9F180FBC3F91896CC93C770C33031F091
:10161000C53021F0C130C1F4C4E007C0F8018085B5
:1016200083FF12C0C33021F1C6E0C8010E945F0AE7
:1016300085E090E0A0E0F80185839683A783B80158
:101640008DEB92E00E942E09D80118968C91189784
:1016500087708C1779F0ED91FC910680F781E02D71
:101660006C2FC801CF911F910F91FF90EF900994BB
:10167000C2E0DBCFCF911F910F91FF90EF900895C3
:101680008DEC92E00E945F0A6DEC72E08DEB92E0CF
:101690000C942E098F929F92AF92BF92CF92DF92BD
:1016A000EF92FF92CF93DF93EC014A015B018DEB48
:1016B00092E00E9409090097B9F481E08887CE0181
:1016C0000E945F0A8D829E82AF82BE018DEB92E006
:1016D000DF91CF91FF90EF90DF90CF90BF90AF90D0
:1016E0009F908F900C942E090297C12CD12C7601DB
:1016F000009719F3FC01258136814781642FA901E8
:1017000070E0C40ED51EE61EF71EC817D90739F0C3
:1017100002960E940909009781F20297E9CFC81446
:10172000D904EA04FB0448F2DF91CF91FF90EF90D7
:10173000DF90CF90BF90AF909F908F900895CF9201
:10174000DF92FF920F931F93CF93DF938C01FFB62D
:10175000F8940E940909009771F1EC01229759F160
:101760008D819E81AF810197A1098D839E83AF8377
:10177000680182E0C80ED11C8D819E81AF81892BCA
:101780008A2BC9F4C8010E943A0A8C81982F9F7055
:1017900080FF1BC09C83E881F9810190F081E02DDE
:1017A000B801CE010995C8010E940909009719F0F6
:1017B000EC01229709F7FFBEC801DF91CF911F917D
:1017C0000F91FF90DF90CF900895BE016E5F7F4F25
:1017D000C6010E941009E7CF8F929F92AF92BF92ED
:1017E0000F931F93CF93DF93CDB7DEB7A1970FB6BB
:1017F000F894DEBF0FBECDBF19A2423008F44AE014
:101800008E010F5D1F4F842E912CB12CA12CA501B0
:1018100094010E94F62CE62FB901CA01EA3044F582
:10182000E05DD801EE938D01232B242B252B79F736
:1018300090E080E0109769F0FD0101900020E9F749
:101840003197AF014A1B5B0BBD018FE092E00E9414
:101850007F04A1960FB6F894DEBF0FBECDBFDF9117
:10186000CF911F910F91BF90AF909F908F9008954F
:10187000E95CD7CFCF92DF92EF92FF926B017C01B0
:1018800080E1C816D104E104F10468F483E890E033
:101890000E946C0540E1C701B601FF90EF90DF9018
:1018A000CF900C94EC0B8FEFC816D104E104F10437
:1018B00009F018F48CE790E0EBCFC11480E1D80672
:1018C000E104F10418F486E790E0E2CFC114D104FA
:1018D00081E0E806F10418F481E790E0D9CFC11463
:1018E000D10480E1E806F10418F48DE690E0D0CF51
:1018F000C114D104E10481E0F80618F48AE690E00E
:10190000C7CFC114D104E10480E1F80618F688E6D7
:1019100090E0BECFCF93C82F803128F460E38FE0F2
:1019200092E00E941F056C2F70E090E080E040E1A3
:10193000CF910C94EC0BEF92FF920F931F93CF93E8
:10194000DF93EC0188810E948A0C8DE990E00E946F
:10195000F60789810E948A0C8BE990E00E94F607C5
:101960008A810E948A0C89E990E00E94F6078B81A7
:101970000E948A0C87E990E00E94F6078C810E9401
:101980008A0C8D810E948A0C8E810E948A0C85E9C6
:1019900090E00E94F6078F810E948A0C88850E9441
:1019A0008A0C89850E948A0C83E990E00E94F607E0
:1019B000088109502A967E0110E0C7018C1B9D0BFF
:1019C0008017910754F4F70181917F010E948A0CDE
:1019D0008FEB91E00E94F607F0CF8FE890E00E9435
:1019E000F6072FB7F8946091D8017091D9018091D2
:1019F000DA019091DB012FBF4AE00E94EC0B8DE8E9
:101A000090E0DF91CF911F910F91FF90EF900C9498
:101A1000F6070E948A0C8BE890E00C94F607CF92B0
:101A2000DF92EF92FF920F931F93CF93DF93FC010E
:101A300090E1DB0101900D929A95E1F7DB0110E056
:101A400004E034E0ED011C969C911C971D96EC91EE
:101A50001D971E96FC901E971F962C911F97492F3D
:101A60005E2F6F2D722F301320C004E0030FF0E0C3
:101A7000E856FB4F8491EF2DF0E0E856FB4FE491E0
:101A80005E2FE22FF0E0E856FB4FE4916E2FE92F36
:101A9000F0E0E856FB4FE4917E2FE12FF0E0E257B3
:101AA000FB4FE491482F4E271F5F1496C880D980C2
:101AB000EA80FB804C255D256E257F251C964D9385
:101AC0005D936D937C931F973F5F3C3209F0BACFD3
:101AD000DF91CF911F910F91FF90EF90DF90CF900A
:101AE00008952F923F924F925F926F927F928F92C2
:101AF0009F92AF92BF92CF92DF92EF92FF920F939D
:101B00001F93CF93DF93CDB7DEB76E970FB6F894E0
:101B1000DEBF0FBECDBF8C017C8B6B8B9A8B898B0C
:101B2000FB01E056FF4F9C01205F3F4F7C01D70136
:101B30008D917D019191119789278C93E216F3067F
:101B4000B1F7F8013196FE8BED8B61E0CF010E9479
:101B5000EB05C8010296988F8F8B62E00E94EB051F
:101B6000D8011396BA8FA98F63E0CD010E94EB05CF
:101B70005801D501ED915D01F0E0E257FC4FE49191
:101B80001197EC93AE14BF04A1F78B889C88B0E941
:101B90008B0E911CFE0131967F01BF01D80190E0B0
:101BA00080E03D91A401480F591FFA0120812327AD
:101BB000FB012193BF0101968031910591F7C70187
:101BC00040969E8F8D8F1801D70113964C901397D6
:101BD00012967C90B42DB725BB8FF70151806080A1
:101BE000F52DF625FC8F6B2F6F274BE189E00E94C6
:101BF000CD24D82E672D66254BE184E00E94CD24AC
:101C0000CD2CC826642D65254BE184E00E94CD24AF
:101C1000D826642D66254BE182E00E94CD248D25D7
:101C20004826D10113964C924BE16B8D82E00E94C5
:101C3000CD248C258725F1018283672D65254BE115
:101C400082E00E94CD248D255826D10111965C9208
:101C50004BE16C8D82E00E94CD248C256826F10139
:101C60006082F4E0EF0EF11C84E0280E311CAD8D93
:101C7000BE8DAE15BF0509F0A7CF61E08D899E89A5
:101C80000E94EB0562E08F89988D0E94EB0563E06E
:101C9000898D9A8D0E94EB05D801ED91F0E0E25715
:101CA000FC4F2491CD010197FC012083AA15BB05AF
:101CB000A1F7F0E18F1A91088B899C898816990603
:101CC00009F068CFA989BA898D91BA8BA98BF401E3
:101CD00091914F01FD01319789278083AA15BB059A
:101CE00089F76E960FB6F894DEBF0FBECDBFDF91B9
:101CF000CF911F910F91FF90EF90DF90CF90BF9009
:101D0000AF909F908F907F906F905F904F903F909B
:101D10002F9008952F923F924F925F926F927F92F1
:101D20008F929F92AF92BF92CF92DF92EF92FF92EB
:101D30000F931F93CF93DF93CDB7DEB764970FB6A2
:101D4000F894DEBF0FBECDBF7C016B011C01FB010F
:101D50009C01205F3F4F4C01D4018D914D01919129
:101D6000119789278C9382169306B1F72601B0E16B
:101D70004B0E511CE9E0EA8B8E010F5F1F4FD8011B
:101D80003701F30181913F01E82FF0E0E856FB4F66
:101D9000E491ED9368147904A1F761E0CE01029615
:101DA0000E94A70562E0CE0103960E94A70563E0AA
:101DB000CE0104960E94A705C80140969C8B8B8B90
:101DC0005701D8016C9111968C9111976827129642
:101DD0008C91129713969C9189278627898B4BE1CA
:101DE00082E00E94CD24F80190818927F9898F270C
:101DF000D5018C93F8016181828168274BE182E0F3
:101E00000E94CD24D80111969C918927B9898B27EE
:101E1000F5018183D80112966C91129713968C91DB
:101E200068274BE182E00E94CD24F8019281892746
:101E3000F9898F27D50112968C93F80163818081EF
:101E400068274BE182E00E94CD24D80113969C9133
:101E50008927B9898B27F50183830C5F1F4FF4E035
:101E6000AF0EB11C8B899C890817190709F0A9CFFF
:101E7000F70190E080E03191BF0161507109A2014A
:101E8000480F591FDA012C912327DB012C9301966F
:101E90008031910581F7BA89B150BA8BE0E14E0EDD
:101EA000511CB11169CFD701ED91F0E0E856FB4F1D
:101EB0002491CD010197FC012083A615B705A1F758
:101EC00061E0C70101960E94A70562E0C701029682
:101ED0000E94A70563E0C70103960E94A705F601CB
:101EE000E056FF4FD1018D911D01919111978927E6
:101EF0008C9326143704B1F764960FB6F894DEBFBE
:101F00000FBECDBFDF91CF911F910F91FF90EF904A
:101F1000DF90CF90BF90AF909F908F907F906F9009
:101F20005F904F903F902F9008951F93CF93DF9332
:101F30001F92CDB7DEB7162F0E9446088F3F99F04B
:101F40006091E0037091E103680F711D198341E016
:101F500050E0CE0101960E94AC2C81E00F90DF9101
:101F6000CF911F91089580E0F9CFEF92FF920F93E8
:101F70001F93CF93DF931F92CDB7DEB78C017B0108
:101F8000E80EF91E198241E050E0B801CE01019639
:101F90000E94AC2C0F5F1F4FE016F10699F781E00D
:101FA0000F90DF91CF911F910F91FF90EF900895C7
:101FB0000F931F93CF93DF93D82FC62F142F0E9418
:101FC00097060E9491068D2F0E948B068C2F0E94EF
:101FD0008B060E94870660E88D2F0E94B306082FAB
:101FE000C81771F0112389F04FEF410F6C2F8D2F1F
:101FF0000E94D80F8FEC97E00197F1F700C0000026
:10200000DF91CF911F910F91089584E893E00E9492
:10201000F6078D2F0E948A0C88E793E00E94F6074E
:102020008C2F0E948A0C80E793E00E94F607802F95
:10203000DF91CF911F910F910C94090DAF92BF9238
:10204000CF92DF92EF92FF920F931F93CF93DF9384
:102050008C016B01DC011B961C927C01BFE0EB0E36
:10206000F11C60EC8BE30E94B30618160CF042C022
:1020700060E88FE30E94B306C82F8A3208F06BC075
:102080000E9497060E9491068FEF0E948B06DE2D1C
:1020900057018A2D8D1B8C1738F480E00E948B0627
:1020A000F50181935F01F5CF0E94870660E88FE319
:1020B0000E94B306282F30E0082E000C990B8827C9
:1020C0009170A901481B590BCA0157FD01969595BE
:1020D0008795919581959109865BD80111968C938E
:1020E00060E88FE30E94B30687FD05C082E892E0B6
:1020F0000E94F807C0E08AE30E949B06EBE7F1E04C
:102100003197F1F700C000000E94AA0684E30E9404
:102110009B06CC23D1F1D8011E96CC931E971F9617
:102120008C911F9796E798271F969C9321E04C2F40
:1021300050E0BA0161507109A22FB0E0F701EA0F37
:10214000FB1F9081A617B707B4F4845289278083B8
:102150002F5F892FF1CF81E792E00E94F6076C2F65
:1021600070E090E080E04AE00E94EC0B8FE692E0A5
:102170000E94F607BFCFD80150968C9189278083A3
:10218000B701C60101960E94DF2EF601C083D80177
:102190001E961C921E971D968C91882359F00E94C2
:1021A00097060E9491060E94870684E30E949B0680
:1021B000F8011586D6018C91DF91CF911F910F9177
:1021C000FF90EF90DF90CF90BF90AF900895CF93A6
:1021D000CFEF86E30E949B06C150807731F08AE101
:1021E0008A95F1F700C0C111F4CF8AE30E949B06E3
:1021F00089E3CF910C949B06CF92DF92EF92FF92EE
:102200000F931F93CF93DF93EC016B01042F7C019D
:102210002FE0E20EF11CFB014191BF0150E0C7012C
:102220000E94DF2EF60120812E878F8596E7892771
:102230008F87988941E02150330B642F70E0F701BC
:10224000E60FF71F5081621773072CF4845285271D
:1022500080834F5FF2CF892F85278083DE84BE0184
:102260006E5F7F4F8A85882339F08FEC97E0019766
:10227000F1F700C00000F6CF8AE090E0A0E08F8385
:102280009887A98781E08A878DEB92E00E942E09CA
:102290008D85882361F00E9497060E9491060E9416
:1022A00087060E94AA0684E30E949B061D8681E0A1
:1022B0008C8786E30E949B068BE30E949B0618ECAA
:1022C00085E30E949B06E7ECF0E03197F1F700C050
:1022D00000001150E9F486E30E949B068BE30E9404
:1022E0009B068DE30E949B0684E30E949B0660ECA4
:1022F00085E30E94B3068D30B9F780E01C86DF913C
:10230000CF911F910F91FF90EF90DF90CF900895A4
:1023100060EC85E30E94B306833191F68FE19EE481
:102320000197F1F700C00000002349F09FE7EBE8B8
:10233000F8E09150E040F040E1F700C000000E945A
:1023400097060E9491068FE30E948B068D2D0E94B6
:102350008B060E9487060E9497060E9491068FE7CF
:102360000E948B06CE2C8701802F8C198D1530F49E
:10237000F80181918F010E948B06F6CF0E9487069B
:1023800018EC60EC85E30E94B3068D3011F481E017
:10239000B5CF87EC90E00197F1F700C00000115035
:1023A00081F7F5CFEF92FF920F931F93CF93DF93B7
:1023B000CDB7DEB760970FB6F894DEBF0FBECDBFC6
:1023C0008C017B01DC016D917C916F5F7F4F40E15F
:1023D00050E0CE0101960E949C2CBE016F5F7F4FA2
:1023E000F70197012A5F3F4FDB018D91BD0191916C
:1023F000AD01415051098927DA018C93E217F307A7
:1024000099F7B801695F7F4FCE0101960E940F0DC9
:1024100081E060960FB6F894DEBF0FBECDBFDF91AE
:10242000CF911F910F91FF90EF900895CF93DF937D
:102430001F92CDB7DEB7198241E050E0BC01CE015A
:1024400001960E949C2C89810F90DF91CF91089575
:102450000F931F93CF93DF938C01862FC42FD22F1E
:102460000E943F088F3FD1F0F80120813181820F17
:10247000932F911D0E9416124C2F0D2E01C0440F58
:102480000A94EAF7842390E002C095958795DA953F
:10249000E2F7DF91CF911F910F91089580E0F9CF7E
:1024A000CF92DF92FF920F931F93CF93DF9300D0D1
:1024B000CDB7DEB7FF24F3946C012AEFC21A2EEFDA
:1024C000D20A8C01075F1E4FD6018C918F1590F0B8
:1024D000D801ED91FC91848595859A83898320E0CC
:1024E00041E068E0CE0101960E94281281110DC0E2
:1024F000F394EACF80E00F900F90DF91CF911F917E
:102500000F91FF90DF90CF90089581E0F4CFCF93AB
:10251000DF93EC0188E10E9446088F3F59F0288143
:102520003981820F932F911D0E9416128170DF91C5
:10253000CF91089580E0FBCF895F9E4F0E94871264
:1025400081110DC089E292E00E94F80764E070E01A
:1025500090E080E00E94B50FF0E0E0E0099408957B
:102560000F931F93CF938C01862FC42F0E94460890
:102570008F3F59F0F80120813181820F932F911DF7
:10258000CF911F910F910C9416128C2FCF911F9108
:102590000F910895EF92FF920F931F93CF93DF93C4
:1025A000EC018B0140E06CE0C8010E94B012F82EF3
:1025B00040E06BE0C8010E94B012E82E40E06AE003
:1025C000C8010E94B0128883E982FA82CE01DF91AD
:1025D000CF911F910F91FF90EF900895CF93DF93CC
:1025E000EC0140E069E0895F9E4F0E94B012C65C3A
:1025F000DE4F8823A1F08FE990E00E94F807CE011A
:102600000E945F0A80E09DEDADE68D839E83AF83DF
:10261000BE018DEB92E0DF91CF910C942E0982EBFD
:1026200090E00E94F807CE01DF91CF910C945F0AF1
:10263000EF92FF920F931F93CF93DF93EC010E94D1
:10264000EE12EA80FB808E01095F1E4F40E062E1DE
:10265000C8010E94B012F70182A70A80DB81C02D59
:1026600040E062E1C8010E94B01283508BA7DF9165
:10267000CF911F910F91FF90EF900895BF92CF924D
:10268000DF92EF92FF920F931F93CF93DF931F92EE
:10269000CDB7DEB76C01142FB22EE62EF12CFC0163
:1026A000808191818E0D9F1D0E941612F60160811E
:1026B00071816E0D7F1D212F01C0220F0A95EAF74F
:1026C00028272B218227898341E050E0CE01019603
:1026D0000E94AC2C81E00F90DF91CF911F910F9160
:1026E000FF90EF90DF90CF90BF900895CF93DF934E
:1026F000EC01CB011A82198218821B82642F049686
:102700000E946F04009731F044E050E0BC01CE011C
:102710000E949C2CCE01DF91CF910895EF92FF9201
:102720001F93CF93DF9300D000D0CDB7DEB77C01ED
:1027300010E0412FB701CE0101960E947613CE0121
:1027400001960E948308882321F01F5F1A3089F7C1
:102750001FEF812F0F900F900F900F90DF91CF916F
:102760001F91FF90EF900895AF92BF92CF92DF92AA
:10277000EF92FF921F93CF93DF9300D000D0CDB79D
:10278000DEB77C016B0110E05C0184E0A80EB11C97
:10279000412FB701CE0101960E947613B601CE01FA
:1027A00001960E94DB08882379F01B821A82198225
:1027B0001C82612FC5010E946F0444E050E0BC01FF
:1027C000CE0101960E94AC2C1F5F1A3009F781E000
:1027D0000F900F900F900F90DF91CF911F91FF906E
:1027E000EF90DF90CF90BF90AF900895CF92DF929F
:1027F000EF92FF921F93CF93DF9300D000D0CDB71D
:10280000DEB77C016B0110E0412FB701CE010196CC
:102810000E947613B601CE0101960E94DB08882340
:1028200091F0612FC70104960E946F0405960F90E6
:102830000F900F900F90DF91CF911F91FF90EF902D
:10284000DF90CF9008951F5F1A30F1F690E080E09E
:10285000EECFAF92BF92CF92DF92EF92FF921F9393
:10286000CF93DF9300D000D000D01F92CDB7DEB75A
:10287000211129C0895F9E4FFC01808191819A833B
:10288000898387E08B838DEB97E09D838C838BE43A
:1028900098E09F838E8329813A814B815C816D8191
:1028A0007E818F8190E027960FB6F894DEBF0FBE31
:1028B000CDBFDF91CF911F91FF90EF90DF90CF9030
:1028C000BF90AF900895662309F45AC0FC01EA5FF7
:1028D000FE4F3081361708F453C0875F9E4FFC01CE
:1028E000E080F180213071F4F701848595859A8329
:1028F000898384E08B838BE997E09D838C8384E4D8
:1029000098E0C7CF6A01233049F55701F8E0AF0ED0
:10291000B11C10E0412FB501CE0101960E94761343
:10292000B601CE0101960E94DB08882389F0612F51
:10293000C7010C960E946F0404969A83898381E0F4
:102940008B838DE694E09D838C8389E997E0A1CF0A
:102950001F5F1A30F9F690E080E0EFCF243081F469
:10296000BA01C70108960E94F6139A83898381E011
:102970008B8381E997E09D838C838AE398E089CFFC
:102980001A8219821B821D821C821F821E8283CFA3
:102990001F93CF93DF93EC011FB7F8949889888534
:1029A000981740F4CE010E94050A1FBFDF91CF9116
:1029B0001F910895188A99859923A1F389898F5FBA
:1029C000898B891778F3CE010E945E0748E050E0BA
:1029D00069EE71E0CE0108960E94932CE6CFEF924B
:1029E000FF920F931F93CF93DF93EC017B018A013A
:1029F0000E945F0ACE010E945E07B70183E0660F66
:102A0000771F8A95E1F7600F711F48E050E0CE0113
:102A100008960E94932C8885882369F0188A198A61
:102A20006DEB72E0CE01DF91CF911F910F91FF907E
:102A3000EF900C94050ADF91CF911F910F91FF90B9
:102A4000EF9008950F931F93CF93DF93EC018B01C9
:102A500049E051E001960E94EF1449EC50E0B801C2
:102A6000CE014596DF91CF911F910F910C94EF14F9
:102A70000F931F93CF93DF93FB01C081CA50D0E027
:102A80008C0109541F4F655F7F4FAE01C8010E9442
:102A9000DF2E40E150E04C1B5D0B70E060E0C801B0
:102AA0008C0F9D1FDF91CF911F910F910C94E82EF9
:102AB0002F923F924F925F926F927F928F929F924E
:102AC000AF92BF92CF92DF92EF92FF920F931F933C
:102AD000CF93DF93CDB7DEB7AA970FB6F894DEBFDA
:102AE0000FBECDBF8C017B013B0184E0680E711CE1
:102AF000C3010E94A508582E8111D7C0F701828119
:102B000085FFD3C0CE0101960E9475085801F5E3F8
:102B1000AF0EB11CF80185A996A90E941612282EA5
:102B200081E1898382E08C8380EA8B8384E08B87D8
:102B3000B301CE0101960E94C308F70187818D83FE
:102B400080858E8381858F8381818A836E01FCE0FD
:102B5000CF0ED11C3C2C4D2C4E0182E1880E911CD5
:102B60000E94832CF60181936F01E815F905C1F7E6
:102B70002A8AF80185A996A90E941612D82EF80172
:102B800085A996A90E941612D81205C0632D742D2E
:102B9000C5010E94D2118BE692E00E94F607CE0199
:102BA00001960E949B0C4B8142954170F8018281F5
:102BB0009381BE016F5F7F4FC5960E94FC108CE32E
:102BC000D82EF80182819381FC01E05CFF4F2081C7
:102BD00021110CC08FE19EE40197F1F700C00000C5
:102BE000DA94D110EECF83E392E07BC0BE016F5F39
:102BF0007F4FC5960E941E10882361F38FE292E0FA
:102C00000E94F607CE0101960E949B0C8C818330B6
:102C100009F7BE016B5F7F4FC3010E949208982E97
:102C20008823C1F2B701C5010E9438156801FCE391
:102C3000CF0ED11CB601CE010B960E94710DDE01A4
:102C40001B96B80164517F4F980124503F4F8D91DE
:102C5000FB019191BF01AD01415051098927FA0152
:102C600080836217730799F78A81F80187ABD801CF
:102C7000D89684E0FE013B9601900D928A95E1F78B
:102C8000B601CE010B960E94710DB7016F5F7F4FA9
:102C90004AE050E0CE0141960E94D22E892BF9F4F1
:102CA0008EE592E00E94F807592C852DAA960FB662
:102CB000F894DEBF0FBECDBFDF91CF911F910F9172
:102CC000FF90EF90DF90CF90BF90AF909F908F904C
:102CD0007F906F905F904F903F902F9008958DE47C
:102CE00092E00E94F807E1CFEF92FF920F931F93BB
:102CF000CF93DF9300D0CDB7DEB78C017A0161119D
:102D000013C00E94501281110AC081E00F900F90F1
:102D1000DF91CF911F910F91FF90EF900895B70130
:102D2000C8010E945815F2CFFC01EA5FFE4F808176
:102D3000861758F3F801E75FFE4F0190F081E02D10
:102D4000848595859A83898320E041E068E0CE01FF
:102D500001960E942812D7CF2F923F924F925F92F6
:102D60006F927F928F929F92AF92BF92CF92DF929B
:102D7000EF92FF920F931F93CF93DF93CDB7DEB700
:102D8000CD55D1090FB6F894DEBF0FBECDBF8C0173
:102D90007B01BA01C7010E94C308C70104960E94C3
:102DA0007008D70112968C911297806812968C93B6
:102DB00046E064E1F801848195810E94B012382ECA
:102DC000811102C033243394D8011496CD90DC9045
:102DD00085E00E9446088F3F09F475C0F601208106
:102DE0003181820F932F911D0E9416128295869534
:102DF0008695837066968FAF6697882349F0D801D1
:102E000012968D919C9162E070E001960E942215CD
:102E10005701B7E0AB0EB11CF801F5966896FFAF0D
:102E2000EEAF68972E01F1E14F0E511CC7010196DC
:102E30006A969FAF8EAF6A9738019CE3690E711C4A
:102E4000D801A450BF4F6C96BFAFAEAF6C97F701DF
:102E5000428142954170D80112968D919C91B701A3
:102E6000C5960E94FC10282E82E791E00E94F6078A
:102E7000C7010E949B0C3A94222051F1F7018281F4
:102E800085FFD8C0C5010E948308882309F4D2C0F9
:102E9000CE018B960E9475088CE3D82ED80112962D
:102EA0008D919C91FC01E05CFF4F2081211119C0A4
:102EB000EFE1FEE43197F1F700C00000DA94D110A1
:102EC000EDCFD12CA9C0F1E06696FFAF669797CF02
:102ED0003110BDCF6696FFAD6697F111EEC0212C83
:102EE000B7C0BE01655D7F4FC5960E941E10882346
:102EF000F9F289E491E00E94F607CE018B960E94D8
:102F00009B0CD70111969C918CA59813D1CFBE0133
:102F1000615D7F4FC5010E949208882349F28EA50A
:102F2000D12C823009F0B6C08DA982FFACC0CCACE8
:102F3000F80185A996A90E941612C812C2CFBE0137
:102F40006A5C7F4F68968EAD9FAD68970E94D211E4
:102F5000D82E882309F460C08DE491E00E94F60722
:102F60008C2D0E94090DCE0101960E94750889E101
:102F7000898383E08C8380E28B831B86D701119643
:102F80008C918A83B70168968EAD9FAD68970E9439
:102F900038156E01BBE0CB0ED11C46016D96CFAE4D
:102FA0006D976E96DFAE6E970E94832CF40181932D
:102FB0004F014E165F06C1F78AE06A96EEADFFAD8F
:102FC0006A97D20101900D928A95E1F7B301C6018B
:102FD0000E948A0EF801E451FF4FD6018D916D01D8
:102FE0009191119789278C936C968EAD9FAD6C97BC
:102FF000E817F90791F7B3016D968FAD6D976E964F
:103000009FAD6E970E948A0EA501BE016F5F7F4F34
:10301000C8010E94AC16D82E88E691E00E94F607FF
:103020008D2D0E948A0C87E691E00E94F807DD2032
:1030300009F44ECF6696BFAD6697BB2349F0D80121
:1030400012968D919C91019663E070E00E9422158A
:10305000822DC35ADF4F0FB6F894DEBF0FBECDBF2F
:10306000DF91CF911F910F91FF90EF90DF90CF9064
:10307000BF90AF909F908F907F906F905F904F9098
:103080003F902F900895D82ED094DD1CDD24DD1CB8
:1030900087FD312CD70112968C9181FD03C08DA53F
:1030A00080FFBACFF8018281938142E350E060E073
:1030B00070E08C960E944A0BAFCFF8018281938119
:1030C0000196212C64E070E0C1CFCF93DF93EB0138
:1030D0002AE0288322E02B834A831A863981FC0167
:1030E00027A932130CC024E0F896DB011B9601904F
:1030F0000D922A95E1F72EE02883FC0117AAAE0174
:103100004C5F5F4FBE01DF91CF910C94AC16EF92F4
:10311000FF920F931F93CF93DF93EC018B018AE112
:103120008B871E861D864C871E8A7E018CEFE81ACF
:103130008EEFF80AF70180819181FC01719624914C
:103140004096FC0184918D8B2AA342E060EF7FE7DB
:10315000CE0146960E945F084AE062EF7FE7CE010B
:1031600048960E945F08FE01EA5FFE4F80818BA3B4
:10317000F701608171816E5E7F4F42E050E0CE01C9
:1031800084960E94932CBE01655F7F4FA801CE01FB
:10319000DF91CF911F910F91FF90EF900C94AC169F
:1031A000EF92FF920F931F93CF93DF9300D01F9264
:1031B000CDB7DEB78C01E62EFC0180858770F82E36
:1031C000C8010E94FE07F2E0EF1230C0F801068944
:1031D0001789F801F680F394F68264817581CE0137
:1031E00001960E94CA124F2DBE016F5F7F4FC8012A
:1031F0000E948718F8018281938161E070E0019656
:103200000E942215F8018281938140ED57E060E031
:1032100070E08C960E944A0B0F900F900F90DF91F8
:10322000CF911F910F91FF90EF900895F5E0EF126D
:10323000F3CFF80186899789F5E0FF120CC0895F0A
:103240009E4F0E9487128111E7CFF80186899789E6
:103250000E949C12E1CFFC018281938167E070E0C3
:1032600001960E942215D8CF2F923F924F925F92E3
:103270006F927F928F929F92AF92BF92CF92DF9286
:10328000EF92FF920F931F93CF93DF93CDB7DEB7EB
:10329000E5970FB6F894DEBF0FBECDBF8C017B0162
:1032A00019AA18AA1FA6CE018F960E94700827019E
:1032B00027E0420E511CBE01615D7F4FC2010E949A
:1032C0009208C82E882309F45CC0D8011296CD90CC
:1032D000DC905601B7E3AB0EB11CC5010E945F0A3A
:1032E0008AE090E0A0E0F60184AF95AFA6AF81E060
:1032F00087AFB5018DEB92E00E942E0985EE91E03B
:103300000E94F607C7010E949B0CD70112968C9170
:1033100086FD8FC0D70114968C911497F80187838E
:1033200015968C911597808716968C9116978187A4
:1033300011968C911197828713967C9013971A9609
:10334000BC901A971B966C911B97F1E07F1201C4F9
:103350006A3009F081C04AE062EF7FE7CE01019652
:103360000E945F084AE050E0BE016F5F7F4FC701D7
:103370000C960E94D22E892B09F41BC1D12CC12C92
:1033800099C1F7018081898381818A83B280BB8260
:10339000D380DC8284818D8385818E8386818F8337
:1033A000878188878085898781858A8782858B87C1
:1033B000A384AC868EE13C96DE011D9601900D92B1
:1033C0008A95E1F765EB72E0CE0108960E949208BB
:1033D000882339F0F1E0DF1204C02AE0A21609F4D4
:1033E00074CFB2FE05C080EC8D0D823008F46DCF35
:1033F0008DED91E00E94F607C7010E949B0C8C2D79
:10340000E5960FB6F894DEBF0FBECDBFDF91CF912A
:103410001F910F91FF90EF90DF90CF90BF90AF90F2
:103420009F908F907F906F905F904F903F902F90E4
:103430000895B7016C5F7F4FC80107960E949208FC
:10344000882309F467CFD8011A969C91F7018181EE
:10345000981360CFC12CD3CF613009F02EC1BB20AF
:1034600009F48CCFF801EA5FFE4F80818B1508F4D8
:1034700085CFA7016B2DC8010E947416882309F41B
:103480007DCFF801E75FFE4FC080D180C7010E9469
:10349000E508782E5601B8E0AB0EB11C4701ECE010
:1034A0008E0E911CF1E08F13A3C0B401C5010E94E0
:1034B000B413C5010E948E13682E2FEF821709F4F2
:1034C000F9C0682FC6010C960E946F0444E050E0DA
:1034D000BC01C4010E94AC2C462DB501CE01019661
:1034E0000E94A907F701828185FF55C0BE01615D79
:1034F0007F4FC2010E949208882309F44CC0F1E07A
:103500007F127CC4C114D10409F472C4D80112968C
:10351000ED91FC91B6A88EE0F701808382E0838371
:1035200012827286D6011B968C911B9783875996BF
:103530008C918487C6010E946807F7018587B6864B
:10354000C7010E94C906D70111969C911197F801F5
:1035500087A9981312C0AC91C7010196A80FB92F83
:10356000B11D84E0F89601900D928A95E1F7D7019C
:103570008C918C5F8C93F80117AAA7014C5F5F4F69
:10358000B701C8010E94AC16D6011A968C911A9701
:103590008E7F1A968C93D80112968D919C9142E35E
:1035A00050E060E070E08C960E944A0BCC24C394FB
:1035B00026CFD80112968D919C9161E070E0019622
:1035C0000E942215F8018281938140ED57E060E06E
:1035D00070E08C960E944A0BD7014C91B7016C5F4A
:1035E0007F4FC8010E948718D12CC12C712C7ACF33
:1035F000D70150968C9150971C969C911C9799835B
:103600001D969C911D979A831E969C919B838C83FB
:10361000B401C5010E94B413BE016F5F7F4FC501A5
:103620000E94B413C5010E948E13382EBFEF8B1772
:1036300009F440C03601ECE06E0E711C682FC30126
:103640000E946F0444E050E0BC01C4010E94AC2C15
:10365000C5010E948E13282EFFEF8F1739F1682FB6
:10366000C3010E946F0444E050E0BC01CE0101960A
:103670000E94AC2CD7011F968C9180FF0FC0432D68
:10368000B501CE018B960E94A907422DB501CE014E
:103690008B960E94A9077724739424CF422DB501FD
:1036A000CE018B960E94A907432DF0CFB401C5012E
:1036B0000E94B41382E0782E15CF6230D1F5BB2082
:1036C00009F45CCEF801EA5FFE4F80818B1508F4A7
:1036D00055CEA7016B2DC8010E947416882309F4EA
:1036E0004DCEF801E75FFE4FC080D1805601B8E0B3
:1036F000AB0EB11CB701645F7F4FC5010E94B413CC
:10370000982EC7010E94E508823081F4F701808974
:103710009485998395859A8396859B838C83BE0136
:103720006F5F7F4FC5010E94B41398229110DACECB
:10373000C1CF633009F074C0BB2009F455CFF80144
:10374000EA5FFE4F80818B1508F44ECF339680815F
:10375000918111962C91119714963C9114973BA747
:1037600015963C9115973CA716963C913DA758019C
:10377000BBE0AB0EB11C3AE1F801338730E136878C
:1037800030E23587758A24874801F6E18F0E911C57
:103790006401212C312C3C0128E0620E711C3AE0BE
:1037A000231641F1422DB301CE0101960E947613FA
:1037B000CE0101960E9483088823D1F0339484E0DF
:1037C000FE013196D60101900D928A95E1F784E0D1
:1037D000C80ED11C94E039120BC0AE01455D5F4F9D
:1037E000B501C8010E94AC166401312C882311F088
:1037F0002394D5CF84E0D6011D928A95E9F7832DD5
:10380000880F880F825FF801838785858F7D858784
:10381000AE01455D5F4FB501C8010E94AC16E4CE14
:10382000643009F083C050962C91A701445F5F4F2C
:103830006B2DC8010E94291429833A834B835C8332
:103840006D837E838F83E981FA81FDABECAB22E04F
:10385000722EEF2B09F467C0D70111968C91119746
:1038600014969C9114979BA715969C9115979CA7CD
:1038700016969C919DA73801BBE06B0E711C9AE1D6
:10388000F801938790E1968790E2958792E0958B77
:1038900084871801F6E12F0E311C6101B12CA12C97
:1038A0001AAA8B818A151B0451F14CF1EC81FD8120
:1038B0008A2D0995D6018C934601B2E08B0E911C9E
:1038C0008CA99DA98A0D9B1D0E941612F601818369
:1038D000FAA9FF5FFAABF83059F4AE01455D5F4FCE
:1038E000B301C8010E94AC16882339F041011AAA1D
:1038F0002FEFA21AB20A6401D4CF61011AAAD6012D
:103900001C9211961C928AA98A5F880FF8018387FE
:1039100085858F7D8587AE01455D5F4FB301C80109
:103920000E94AC16712CD12CC12CDCCD6E3009F06C
:103930004AC0F801E75FFE4FC080D18011969C918C
:10394000D8011296ED91FC911397B6A8F6018385E4
:103950001B966C931B9720E11E962C931E9722E2D8
:103960001D962C931D9726E055962C9355971C96E3
:103970009C931C9756968C935697818D57968C9353
:10398000C6010E946807D80158968C93589759969B
:10399000BC9259971D968C911D978F7D1D968C9387
:1039A0005801BBE0AB0EB11CC5010E94C906A701BE
:1039B0004C5F5F4FB501C8010E94AC16F6018285CD
:1039C0008E7F828711CE653081F5A7016B2DC801EE
:1039D0000E947416882309F4D1CCD7011A966C91F1
:1039E000F801E55FFE4F60836801B4EFCB1ABEEFCC
:1039F000DB0AF7012089A701445F5F4FC8010E94DD
:103A00002914D6012C9311963C93119712964C933E
:103A1000129713965C93139714966C9314971596BC
:103A20007C93159716968C937ECF663031F5F8010E
:103A3000E45FFE4F20813181359780819181281785
:103A4000390781F4F8018281938170E060E001968A
:103A50000E942215D801ED91FC910480F581E02DA2
:103A6000C80109958FEFF801E55FFE4F808342E0C2
:103A7000B701C8010E946518B7CD683009F04DC084
:103A8000A7016B2DC8010E947416882309F476CC17
:103A9000F801E55FFE4F9081F7018285981343CFCF
:103AA0004801F4EF8F1AFEEF9F0AD4018D919C918B
:103AB000892B09F438CFF70180818B3008F48BE033
:103AC0008B508AAB5701FCE0AF0EB11C65011801A9
:103AD0002FEE221A2EEF320A8C2D8A193AA983175B
:103AE00008F021CFD60111966C90D101ED91FC9197
:103AF000D6018C9109958F3F61F0F401608171814D
:103B0000680F711D698241E050E0CE0101960E946C
:103B1000AC2CF2E0CF0ED11CDFCF693009F02ECCF7
:103B200011968C9194E1F801938790E19687158620
:103B3000158A8487168A4AE062EF7FE7C8014696B5
:103B40000E945F08A7014C5F5F4FB801655F7F4F20
:103B500063CEF1E17F1269C024E0B21619F03AECAD
:103B6000B31228C0C8010E945012811117C040E052
:103B7000B701C8010E9465188AECB81217C084EB1F
:103B800091E00E94F80788E19CE00FB6F894A895B0
:103B9000809360000FBE90936000FFCFB701C80113
:103BA0000E945815882309F41FCDE1CFC8010E9457
:103BB0009C121ACD662309F417CDF801EA5FFE4F77
:103BC0008081861708F410CD3396C080D180A7017C
:103BD000C8010E947416882309F408CD92E0B91632
:103BE000F1F09B1550F0BB2091F0A1E0BA12FECC91
:103BF000F6018285826082874ECDB3E0BB1609F460
:103C00004ACDE0E8BE12F2CCF60182850BC0D601A7
:103C10001A968C911A978D7F1A968C933CCDD6016B
:103C20001A968C9181FF46CDE1CCF2E17F1207C05C
:103C300083ED91E00E94F807D12CC12C2CCD80ECB3
:103C4000870D823008F048C033243394612CD12C86
:103C5000C12C92E0792E98012A5F3E4F3BAB2AABF4
:103C6000C801875F9E4F9DAB8CABAAA9BBA98C9165
:103C7000831568F1ECA9FDA9A080B180D5011A9641
:103C80008C9181FD22C04501B8E08B0E911CF7019B
:103C900082858F7394819BA795819CA796819DA710
:103CA0008EA7212C422DB401CE0101960E947613DD
:103CB000BE016F5F7F4FCE018B960E94DB088111A2
:103CC000AFC02394FAE02F12EDCF3394CECF21E092
:103CD000261508F428CE06CC34E073124FCBC80169
:103CE0000E945012811130C0D801D5966D917C91FF
:103CF0006F5F7F4F40E150E0CE0101960E949C2C07
:103D00006801BCE3CB0ED11CB601CE0101960E9426
:103D10000F0DB601C7010A960E94710DF70172845A
:103D2000F1E07F122BCBD801A450BF4F9701245F45
:103D30003F4FF701838580FD0FC088E0F9010190B6
:103D40000D928A95E1F7EFCDB701C8010E94581591
:103D5000882309F449CCC8CF88E0FD01DE01119623
:103D600001900D928A95E1F788E0F901DE0119963C
:103D700001900D928A95E1F789EC91E00E94F60797
:103D80009E012F5F3F4F59016E0131E1C30ED11CDF
:103D9000D5018D915D010E948A0C8FEB91E00E940C
:103DA000F607AC14BD04A1F781EC91E00E94F60780
:103DB000F70183858E7F0E94090DD801D5966D91FC
:103DC0007C916F5F7F4F40E150E0CE0101960E94F1
:103DD000AC2CF80165A976A9D7011B968C918E7F32
:103DE0008BA741E050E0CE018B960E94AC2C9BCD7E
:103DF00040E0B701C8010E946518CDCBB2E07B124C
:103E0000CACB8AE0F70180837382128280E88287BE
:103E1000A7014C5F5F4FB701C8010E94AC16BBCB36
:103E2000611008C0A701632DC8010E947416882381
:103E300009F44BCF639465017724739446CF3F9286
:103E40004F925F926F927F928F929F92AF92BF92AA
:103E5000CF92DF92EF92FF920F931F93CF93DF9356
:103E6000CDB7DEB728970FB6F894DEBF0FBECDBF33
:103E7000FC0160857185DB0118960D911C9168012C
:103E8000BBE0CB0ED11C8091D1019091D201D80121
:103E900012962D913C91D9019A96EC90F38442852B
:103EA00021E0240F2287DB011B962C911B9718968B
:103EB0006D917C91DB0116963C9116973F5F1696AB
:103EC0003C93C29664E670E00E947F2D80E06E1500
:103ED00008F480E891E4D8011E969C931E9792E224
:103EE0001D969C931D972F73282B55962C935597B1
:103EF0001C963C931C9756964C9356975796FC925B
:103F00008091D1019091D201C29664E670E00E9446
:103F10007F2DD80158966C9358978DE01B968C9303
:103F20000084F185E02DE084F184B12CA12C812C5A
:103F30003F01B8E06B0E711C2801EFE04E0E511CE2
:103F4000FAE0AF16B10409F482C04A2DB301CE01E4
:103F500005960E947613CE0105960E948308382E9E
:103F60008823E1F1912C492DB301CE0101960E94E5
:103F70007613BE016F5F7F4FCE0105960E949208B7
:103F8000811106C093948AE09812EDCF99249A94F7
:103F90009A141B041CF1CE0105960E94A5088823E3
:103FA00059F1C2010E947008B201C6010E94C30803
:103FB000D8011D968C911D9785FF14C08F7D1D968D
:103FC0008C93D701ED91FC910680F781E02DB6012D
:103FD000C7010995F801858580628587BFEFAB1A17
:103FE000BB0AAECFD701ED91FC910680F781E02DA1
:103FF000B601C7010995F2CFBE016B5F7F4FC301C8
:104000000E94F6134C0141E06AE771E081E00E94F2
:104010002E088F3FA1F0880D992D911D0E94161238
:1040200080FF0DC0F801858580618587AE014B5FFB
:104030005F4FB601C7010E94AC16832CCFCFD801C9
:104040001D968C911D978F7E1D968C93EFCF8110BE
:104050000EC0F70164817581CE0101960E94CA12DB
:10406000AE014F5F5F4FB601C7010E94AC162896A4
:104070000FB6F894DEBF0FBECDBFDF91CF911F9179
:104080000F91FF90EF90DF90CF90BF90AF909F90F7
:104090008F907F906F905F904F903F900895BF9268
:1040A000CF92DF92EF92FF920F931F93CF93DF9304
:1040B00000D0CDB7DEB78C01DC015996EC90599752
:1040C00093968C910E94DA03C82EF80184A10E9475
:1040D000DA03F82EB82ED8019596DC90DD2021F079
:1040E0008D2D0E94DA03D82E46E050E062EC71E09C
:1040F0008FE092E00E947F046C2D70E090E080E001
:104100004AE00E94EC0B6B2D70E090E080E04AE00A
:104110000E94EC0B6D2D70E090E080E04AE00E9480
:10412000EC0B8FE692E00E94F607EF2DEE0FEC29E4
:10413000E370E00FF12FF11D878DF801868F81303C
:1041400039F4F1E0DF1204C082E0D8015E968C936E
:10415000F801868D823009F454C0833009F457C0C9
:104160008130A9F4848595859A83898326E043E08C
:1041700060E2CE0101960E942812813009F44DC000
:10418000823009F44CC0833011F424E6E22ED801C9
:1041900059968C9159978F3F09F044C05996EC92EB
:1041A000D8015A968C91882301F10E94DA03FF24EA
:1041B000F394892B09F4F12CF801838D8F15A9F064
:1041C0000084F185E02D41E060E1848195810E94C9
:1041D000B012882351F0D8015B96FC925B971A9637
:1041E0008C911A9781601A968C930F900F90DF91A3
:1041F000CF911F910F91FF90EF90DF90CF90BF90E4
:104200000895848595859A83898324E0B0CF848539
:1042100095859A83898322E0AACFE12CB8CF98ECC8
:10422000E92EB5CF8E1509F4BBCFF801C484D5842F
:1042300081E20E943F08F12C8F3F31F08C0D9D2DC3
:10424000911D0E941612F82ED8015996EC92680121
:10425000BEE0CB0ED11CC6010E945F0AF11054C013
:104260006DEB72E0C6010E941F1FD8011C96ED90F5
:10427000FC9082E20E943F088F3F09F469C08E0DD6
:104280009F2D911D0E941612B5E08B9F9001112465
:104290002115310509F484CFD8011896ED91FC91D0
:1042A000E280F380F701828581117ACFA4E6B0E045
:1042B0000E94182D28EE33E040E050E00E94F62CDA
:1042C000211531054105510509F46ACF82E0D70176
:1042D0001A968C931A9781E01B968C93AAE0B0E013
:1042E0000E94E32C24E630E040E050E00E94F62CEF
:1042F000F70124871586138A128A6DEB72E0C701D5
:1043000002960E94050A4CCF81E089838CE38A8360
:10431000EF2DF0E0EE0FEF2FEE1FFF0BEC0FFD1F68
:10432000E1812F2D2F7730E0A4E6B0E00E94182D18
:104330009B01AC01AE2FB0E00E94E32CF801638B2F
:10434000748B858BB6018DEB92E00E942E098DCF88
:1043500084E69ACF0C94492E0C94492E0C94492E45
:104360000C94492E0C94492E0C94492E0C94492EF1
:104370000C94492ECF93DF93EC010E94CC07CE0121
:10438000DF91CF910C94492ECF93DF93EC010E94E3
:10439000ED07CE01DF91CF910C94492E0C94492E5C
:1043A0000C94492ECF93DF93EC010E942708CE0195
:1043B000DF91CF910C94492E0C94492E1F920F92AD
:1043C0000FB60F9211242F933F938F939F93AF9328
:1043D000BF938091D8019091D901A091DA01B09159
:1043E000DB013091D70126E0230F2D3758F50296D7
:1043F000A11DB11D2093D7018093D8019093D901BD
:10440000A093DA01B093DB018091D3019091D401A4
:10441000A091D501B091D6010196A11DB11D809347
:10442000D3019093D401A093D501B093D601BF914D
:10443000AF919F918F913F912F910F900FBE0F9051
:104440001F90189529E8230F0396A11DB11DD2CF07
:104450001F920F920FB60F9211242F933F934F93F9
:104460005F936F937F938F939F93AF93BF93EF93DC
:10447000FF93E0910201F09103010995FF91EF9103
:10448000BF91AF919F918F917F916F915F914F916C
:104490003F912F910F900FBE0F901F9018951F9274
:1044A0000F920FB60F9211242F933F934F935F9368
:1044B0006F937F938F939F93AF93BF93EF93FF93EC
:1044C000E0910001F09101010995FF91EF91BF91F9
:1044D000AF919F918F917F916F915F914F913F919C
:1044E0002F910F900FBE0F901F9018951F920F9253
:1044F0000FB60F9211242F933F934F935F936F93B7
:104500007F938F939F93AF93BF93EF93FF938FE02E
:1045100092E00E94FD04FF91EF91BF91AF919F91B6
:104520008F917F916F915F914F913F912F910F905C
:104530000FBE0F901F9018951F920F920FB60F92FB
:1045400011242F938F939F93EF93FF93E0911F027A
:10455000F09120028081E0912502F091260282FDF7
:104560001BC09081809128028F5F8F732091290258
:10457000821741F0E0912802F0E0E15FFD4F958F56
:1045800080932802FF91EF919F918F912F910F902F
:104590000FBE0F901F9018958081F4CF1F920F923D
:1045A0000FB60F9211242F933F934F935F936F9306
:1045B0007F938F939F93AF93BF93CF93DF93EF93AB
:1045C000FF93CCEAD2E060E089810E94030410925C
:1045D000B1006A817B818C819D810E94272D60932F
:1045E000B30081E08E83FF91EF91DF91CF91BF9176
:1045F000AF919F918F917F916F915F914F913F917B
:104600002F910F900FBE0F901F9018951F920F9231
:104610000FB60F9211242F933F934F935F936F9395
:104620007F938F939F93AF93BF93EF93FF93E0910B
:10463000CC01F091CD01309709F00995FF91EF91F0
:10464000BF91AF919F918F917F916F915F914F91AA
:104650003F912F910F900FBE0F901F9018951F92B2
:104660000F920FB60F9211242F933F934F935F93A6
:104670006F937F938F939F93AF93BF93EF93FF932A
:10468000E8EBF2E084818F5F8483CF010E949F0B6F
:10469000FF91EF91BF91AF919F918F917F916F911A
:1046A0005F914F913F912F910F900FBE0F901F90F0
:1046B00018951F920F920FB60F9211242F933F93CC
:1046C0004F935F936F937F938F939F93AF93BF931A
:1046D000EF93FF938DEB92E00E949F0BFF91EF9180
:1046E000BF91AF919F918F917F916F915F914F910A
:1046F0003F912F910F900FBE0F901F9018951F9212
:104700000F920FB60F9211248F930FB6F894A895BD
:1047100080916000886180936000109260000FBEFD
:104720008F910F900FBE0F901F9018951F920F92B0
:104730000FB60F9211242F933F934F935F936F9374
:104740007F938F939F93AF93BF93CF93EF93FF93F9
:1047500099B1C091DC0180910C0230910902292F9E
:10476000209523238923822B20916D00C927C22302
:10477000C8239093DC01CC23C1F1C0FF05C0E091B8
:10478000DD01F091DE010995C1FF05C0E091DF0177
:10479000F091E0010995C2FF05C0E091E101F091BF
:1047A000E2010995C3FF05C0E091E301F091E40146
:1047B0000995C4FF05C0E091E501F091E601099576
:1047C000C5FF05C0E091E701F091E8010995C6FF3A
:1047D00005C0E091E901F091EA010995C7FF05C024
:1047E000E091EB01F091EC010995FF91EF91CF91F0
:1047F000BF91AF919F918F917F916F915F914F91F9
:104800003F912F910F900FBE0F901F9018951F9200
:104810000F920FB60F9211242F933F934F935F93F4
:104820006F937F938F939F93AF93BF93CF93EF93A8
:10483000FF9396B1C091ED0180910D0230910A0273
:10484000292F209523238923822B20916C00C927AF
:10485000C223C8239093ED01CC2351F1C0FF05C0C2
:10486000E091EE01F091EF010995C1FF05C0E091E3
:10487000F001F091F1010995C2FF05C0E091F2014C
:10488000F091F3010995C3FF05C0E091F401F091A7
:10489000F5010995C4FF05C0E091F601F091F7011B
:1048A0000995C5FF05C0E091F801F091F90109955E
:1048B000FF91EF91CF91BF91AF919F918F917F9198
:1048C0006F915F914F913F912F910F900FBE0F907D
:1048D0001F9018951F920F920FB60F9211242F93CD
:1048E0003F934F935F936F937F938F939F93AF9378
:1048F000BF93CF93EF93FF9393B1C091FC0180914D
:104900000E0230910B02292F209523238923822B1D
:1049100020916B00C927C223C8239093FC01CC23AC
:1049200051F1C0FF05C0E091FD01F091FE01099534
:10493000C1FF05C0E091FF01F09100020995C2FF9F
:1049400005C0E0910102F09102020995C3FF05C084
:10495000E0910302F09104020995C4FF05C0E091C3
:104960000502F09106020995C5FF05C0E091070216
:10497000F09108020995FF91EF91CF91BF91AF910E
:104980009F918F917F916F915F914F913F912F9167
:104990000F900FBE0F901F901895782F882776954F
:1049A00031F008F48627660F08F46427F8CF08F47E
:1049B00086270895FC011286128288E291E0918395
:1049C000808380911E0190911F01A0912001B091E0
:1049D000210183839483A583B68317821086118671
:1049E0000895EF92FF920F931F93CF93DF93EFE021
:1049F000F2E01382128288EE93E0A0E0B0E08483BC
:104A00009583A683B7838CE291E09183808385ECC4
:104A100090E09587848784EC90E09787868780EC88
:104A200090E0918B808B81EC90E0938B828B82EC79
:104A300090E0958B848B86EC90E0978B868B118E23
:104A4000128E138E148E1092B302E5EBF2E01282F6
:104A500011821082EDEBF2E0118210821382128239
:104A6000E8EBF2E011821082138212821482EDE1EF
:104A7000F4E01582148217821086118680EB91E093
:104A800093838283128A138A148A158A11E0109301
:104A90002304118E108E138E148E158E978B868B99
:104AA00016A217A210A611A61093370412A613A6D9
:104AB00017A616A611AA12AA13AA86EA91E095A72C
:104AC00084A714AA10934D0416AA12AE11AE14AE08
:104AD00015AE16AE8CE991E090AF87AB17AE109390
:104AE000580410925D0410925E0410925F0480E6F8
:104AF00094E00E947508C9EDD2E08CE691E09983BC
:104B000088831B821A8280EEE82E83E0F82EFD82D5
:104B1000EC821E82198618861F821A8684EE92E025
:104B20000E94750880E290E09EAB8DAB1FAA8EEDCF
:104B300095E09093DE038093DD031093DF0381E320
:104B400090E0F701918380839FEF9093E4031092AC
:104B5000E6031092E5031092E7031092E903109226
:104B6000E8031092EB031092EA0328E731E039835F
:104B700028831092F5031092F403E6EFF3E08081AE
:104B80008E7F8D7F80831092F7031092F90310922D
:104B9000F8031092EF031092EE031092F0031092BC
:104BA000F1031092F2031092F3030CEE13E028E5E8
:104BB00031E0F801318320831092FD031092FC0351
:104BC0001092FE031092FF03109200041092010451
:104BD0002EE431E03093FB032093FA031093030497
:104BE00000930204109204049093050410920604AA
:104BF0001092070488E094E00E94DA2482E691E0B3
:104C0000F801918380831093E3030093E2031092F1
:104C10001604109215041092170480E09DEDADE685
:104C20008093180490931904A0931A0484E491E0EB
:104C30009093140480931304D0931C04C0931B041A
:104C400080E991E099838883E1ECF2E0138212829B
:104C50001092C502158216821782A9ECB2E08C91DF
:104C6000887F816088608C931186178616861092E3
:104C7000D102118A128A138A8EE391E09587848784
:104C8000F58BE48B8AEB91E091838083D78BC68B85
:104C90008CE291E093878287DF91CF911F910F91F2
:104CA000FF90EF900895CF93DF93CDB7DEB72897AD
:104CB0000FB6F894DEBF0FBECDBF789484B5826086
:104CC00084BD84B5816084BD85B5826085BD85B5B0
:104CD000816085BD80916E00816080936E0010922E
:104CE00081008091810082608093810080918100A9
:104CF000816080938100809180008160809380003A
:104D00008091B10084608093B1008091B000816097
:104D10008093B00080917A00846080937A008091C3
:104D20007A00826080937A0080917A008E7F8093EF
:104D30007A0080917A00806880937A001092C10096
:104D4000E0911F02F091200282E08083E0911B023B
:104D5000F0911C021082E0911D02F0911E0280E190
:104D6000808310922702E0912302F091240286E0D2
:104D70008083E0912102F091220280818061808312
:104D8000E0912102F0912202808188608083E0918D
:104D90002102F0912202808180688083E0912102CB
:104DA000F091220280818F7D808381E293E00E94D6
:104DB000F8078091E0039091E103079620E049ED28
:104DC00052E03091DF03231790F4E22FF0E0EE0F72
:104DD000FF1FEE51FC4F0190F081E02D2F5F5187B6
:104DE0004087238795878487805C9F4FEACF009117
:104DF000E2031091E30381E193E00E94F6076091E2
:104E00000E0370910F0390E080E04AE00E94EC0BEB
:104E10008DE093E00E94F607D8011C966D917C917D
:104E2000605C7F4F90E080E04AE00E94EC0B8BE0FA
:104E300093E00E94F60761E190E080E00E944D0857
:104E40008C01E4E0EE2EE3E0FE2EFBE0CF2EF3E05B
:104E5000DF2EF7016491C8010E944D088C01FFEF1D
:104E6000EF1AFF0ACE14DF04A1F7EE24E394809139
:104E7000DF038E1570F1C090E203D090E303F12CB4
:104E80008F2D0E949B07682FC8010E944D088C013E
:104E9000F39424E0F212F4CFB601685F7F4F40E054
:104EA000CE0101960E94A90780E00E946D04682F40
:104EB000C8010E944D088C0180E00E949107682F74
:104EC000C8010E944D086AE00E944D088C01E394DD
:104ED000CECF44E050E070E060E0CE0105960E9445
:104EE0009C2C30E020E02E6F3A6C09831A832B83D0
:104EF0003C836D817E818F8198850617170728076F
:104F0000390709F4B6C00E943A0C83EF92E00E9480
:104F1000F60785EF92E00E94F60769817A818B811E
:104F20009C810E943A0C83EF92E00E94F60744E0D5
:104F300050E070E060E0CE0101960E94AC2C6091E0
:104F40000E0370910F03198241E050E0CE010196EB
:104F50000E94AC2C60910E0370910F036F5F7F4F26
:104F600040E150E084E091E00E94AC2C67E070E00A
:104F70008091E0039091E1030E94B50F61E089E028
:104F80000E94950F66E084E10E94950F61E080E148
:104F90000E94950F66E182E10E94950F10E074E691
:104FA000F72E8091DF03181708F063C0E12FF0E0BF
:104FB000EE0FFF1FEE51FC4FC080D18060E470E027
:104FC000D6011C968D919C910E94B50FF6018485A7
:104FD00095859A83898364E070E00E94B50F80E232
:104FE0000E943F088F3F41F006E020EC41E0682F2F
:104FF000CE0101960E943E1380E20E943F088F3F3F
:1050000041F004E020E342E0682FCE0101960E94C7
:105010003E1380E20E943F088F3F41F002E02CE007
:1050200043E0682FCE0101960E943E1382E20E9467
:105030003F088F3F59F069817A81680F711DFD82A9
:1050400041E050E0CE0105960E94AC2C80E30E9426
:105050003F088F3F61F069817A81680F711D86E09A
:105060008D8341E050E0CE0105960E94AC2C1F5F7D
:1050700098CF8DE194E09093DC028093DB021B8259
:105080001A821982CE0101960E94700889819A8144
:105090000E94882C85E08093310461E00E943104F5
:1050A0008FE194E00E945E0784E08093450461E014
:1050B0000E94310483E394E00E945E07E8988EE743
:1050C00094E0909301018093000182E594E0909335
:1050D000CF018093CE018BEE92E00E94F60760E054
:1050E00082E00E94310489EE92E00E94F80761E0BC
:1050F0008AE00E94310461E08BE00E94310460E0AC
:105100008CE00E94310461E08DE00E94310480E572
:105110008CBD61E08AE00E94030461E08DE00E94A2
:10512000030460E08BE00E9403040E9497060E9443
:1051300091060E948706F5E8FA95F1F700000E94B3
:1051400097060E94910680E30E948B060E949106BA
:105150000E94870605EB12E0F80131966491F80190
:10516000849143E00E94D80F0E5F1F4FF2E0093E8A
:105170001F0791F788EA92E00E94F60760EC81E34E
:105180000E94B3060E94090D83E30E949B068FEAEA
:1051900093EB0197F1F700C0000043E060EC8EE371
:1051A0000E94D80F8FE992E00E94F80787E897E005
:1051B0009093010180930001809169008C7F82604F
:1051C00080936900E89A80E18093810010928000CA
:1051D000109285001092840080E49CE990938700EF
:1051E0008093860081E1809381000E94540766E0ED
:1051F00070E08EE194E00E9422150E94832C8C01C5
:1052000084E594E00E945F0AC8016CEA7DE00E9498
:10521000932D9C0128513C4FA4E6B0E00E94182D2C
:1052200028EE33E040E050E00E94F62C2093590431
:1052300030935A0440935B0481E080935C0464E5FE
:1052400074E08DEB92E00E942E0980910E035CEFDA
:10525000E52EE80E855090E004960E941612D82E96
:1052600000E01EE5AE2DA150BB0B7D01802F90E02C
:105270008E159F0534F404960E94161218270F5FAE
:10528000F5CF1D1127C084E090E00E941612182F60
:1052900085E090E00E941612082F80EA810F8B3083
:1052A000C8F48DE892E00E94F607812F0E948A0CD4
:1052B000802F0E94090D43E061E28DE00E94D80F2B
:1052C00043E0612F8EE00E94D80F43E0602F8FE013
:1052D0000E94D80F0E94E00688E08093CA0262E034
:1052E0000E94310460E47BE088E00E942503009185
:1052F000E2031091E3038EE0F80183A38FE084A31F
:1053000080E185A360E08EE00E94310460E08FE0E0
:105310000E94310460E080E10E943104D8015A9675
:105320001C925A97ED91FC910190F081E02D6DEB6C
:1053300072E0C801099589ED92E00E9418139091DE
:10534000DF0381E0981710F08F5FFCCF69ED7AE002
:105350008EE00E94250369ED7AE08FE00E9425032C
:1053600069ED7AE080E10E9425034CED55E060E0B4
:1053700070E089E494E00E944A0B24E630E08091DA
:10538000D1019091D201C296B9010E947F2D66236E
:10539000B1F3E091E203F091E303828581608287BB
:1053A00004E610E0BB24B394A12C8FEB92E00E94A2
:1053B0003A0A0097B9F0DC011297A1F014968C918B
:1053C00014978F7014968C931497ED91FC9111970C
:1053D0000190F081E02D6DEB72E0CD010995AA24DA
:1053E000A394E3CF8091DB029091DC02FC01E05CAE
:1053F000FF4F208121115CC080E0CC24C3949EE04B
:10540000992E20E1822E32E2732E46E0642E909196
:10541000DF039C1508F461C0E090E203F090E30321
:10542000F701928590FB552450F890FF3FC0D09033
:10543000DF02D394D092DF026091DD027091DE0230
:10544000CE0101960E94CA12E091DB02F091DC02CB
:1054500046A8D7011B968C911B979092E4028092EC
:10546000E7027092E6026092EE02D092E50280932B
:10547000EF0259968C918093F002C7010E94680751
:105480008093F1024092F20284EE92E00E94C906FB
:10549000AE014F5F5F4F64EE72E089ED92E00E94D3
:1054A000AC16F70182858E7F8287852DC394AFCF9E
:1054B00064EE72E0C5960E941E108A3008F49CCFFC
:1054C00088EE92E00E94A508811196CF64EE72E00A
:1054D00089ED92E00E94341990CFA110A5C18111ED
:1054E000A3C18091D1019091D201C296B8010E94CE
:1054F0007F2D809148046817B0F480915F0481117A
:1055000005C00E94E71081E080935F040E9442077B
:1055100030E020E050E040E06AE070E080ED91E0B3
:105520000E943906F5CF8091510481118AC18FE024
:1055300092E00E9487058091C00085FD06C08091A1
:10554000C00080648093C000F6CF8091C00086FFC9
:10555000FCCF80916F008E7F80936F008DEB92E087
:105560000E940909009709F4A8C0FC01329709F4C8
:10557000A4C0C580D680E780F12C8FEB92E00E941A
:105580000909892B09F096C0F1E0CF16D104E10496
:10559000F10409F4E6C080915F04811104C00E9407
:1055A000E710B0925F040E94420721E2C21623E096
:1055B000D206E104F10408F084C081E9C81681E054
:1055C000D806E104F10408F085C099ECC916D104AD
:1055D000E104F10408F087C0A5E6CA16D104E1048D
:1055E000F10408F088C0B3E3CB16D104E104F10460
:1055F00008F089C0EAE1CE16D104E104F10408F014
:105600008AC0FDE0CF16D104E104F10408F08BC09C
:1056100027E0C216D104E104F10408F08CC084E054
:10562000C816D104E104F10408F08DC092E0C91657
:10563000D104E104F10408F48EC070E060E0C12CF4
:10564000D12C7601C39430E020E050E040E080EDC2
:1056500091E00E9439060E94E0068DEB92E00E94E4
:105660000909009719F1FC01329701F1A1E0CA1A6A
:10567000D108E108F10885819681A781AC016A2FE4
:1056800070E041505109610971094C155D056E05C5
:105690007F0530F46C01EA2EB1E0CB1AD108E108A5
:1056A0008C199D09AE0985839683A7838DEB92E0C3
:1056B0000E949F0B0E945407B7C0C12CD12C7601C9
:1056C0005CCF69E070E0A0E2CA2EA3E0DA2EE12C04
:1056D000F12CB9CF68E070E0F0E9CF2EDD24D3944F
:1056E000E12CF12CB0CF67E070E0E8ECCE2ED12CAD
:1056F000E12CF12CA8CF66E070E054E6C52ED12C49
:10570000E12CF12CA0CF65E070E042E3C42ED12C57
:10571000E12CF12C98CF64E070E039E1C32ED12C5C
:10572000E12CF12C90CF63E070E02CE0C22ED12C64
:10573000E12CF12C88CF62E070E096E0C92ED12CEC
:10574000E12CF12C80CF61E070E083E0C82ED12CF9
:10575000E12CF12C78CF6AE070E0C12CD12C7601DD
:1057600072CF0E9454079091B100892F827091FDF1
:1057700084E09091B10090FD82609091B100909191
:10578000B1009B7F9093B1009091B1009D7F909369
:10579000B1009091B1009E7F9093B1009091640010
:1057A00090649093640090917A009F7790937A0030
:1057B0009091640091609093640090916400906275
:1057C000909364009091640090689093640093B704
:1057D000917F93BFF89493B7916093BF7894889525
:1057E00093B79E7F93BF7894909164009E7F90932F
:1057F000640090917A00906890937A0081FF05C0D0
:105800008091B10084608093B100809164008F7BAF
:1058100080936400809164008F7D80936400809108
:1058200064008F778093640080E090E0892B09F416
:10583000BBCD0E94E904882309F4B4CD0E94000086
:10584000B1CD80915F04882379F30E9497060E946E
:1058500091060E9487060E94AA0684E30E949B0686
:1058600010925F04E1CF89ED92E00C9427088F92AB
:105870009F92AF92BF92CF92DF92EF92FF92CF931F
:10588000DF93EC01688179818A819B8161157105C3
:105890008105910521F464E279ED8BE597E02DE136
:1058A00033EF41E050E00E94C42C49015A019B01B2
:1058B000AC01A7EAB1E40E94E32C6B017C01ACEEE1
:1058C000B4EFA50194010E94F12CDC01CB018C0DF9
:1058D0009D1DAE1DBF1DB7FF03C00197A109B048B4
:1058E00088839983AA83BB839F77DF91CF91FF90B1
:1058F000EF90DF90CF90BF90AF909F908F900895E2
:105900000E94372C089584E191E00E94372C08957D
:10591000B0E0A0E08093140190931501A0931601CC
:10592000B09317010895FB01DC0102C005900D92B0
:1059300041505040D8F70895DC01CB01FC01F999A2
:10594000FECF06C0F2BDE1BDF89A319600B40D92CB
:1059500041505040B8F70895DC01CB0103C02D91B0
:105960000E94B72C41505040D0F70895262FF99946
:10597000FECF1FBA92BD81BD20BD0FB6F894FA9A32
:10598000F99A0FBE01960895052E97FB1EF4009418
:105990000E94DB2C57FD07D00E94F62C07FC03D099
:1059A0004EF40C94DB2C50954095309521953F4F4B
:1059B0004F4F5F4F089590958095709561957F4FFB
:1059C0008F4F9F4F08950E94182DA59F900DB49F53
:1059D000900DA49F800D911D11240895B7FF0C9484
:1059E000E32C0E94E32C821B930B0895A1E21A2E54
:1059F000AA1BBB1BFD010DC0AA1FBB1FEE1FFF1F73
:105A0000A217B307E407F50720F0A21BB30BE40BC2
:105A1000F50B661F771F881F991F1A9469F7609509
:105A20007095809590959B01AC01BD01CF010895C3
:105A3000A29FB001B39FC001A39F700D811D1124CF
:105A4000911DB29F700D811D1124911D08950E941A
:105A50005E2D88F09F5798F0B92F9927B751B0F075
:105A6000E1F0660F771F881F991F1AF0BA95C9F7E2
:105A700014C0B13091F00E94782DB1E008950C94DB
:105A8000782D672F782F8827B85F39F0B93FCCF38E
:105A9000869577956795B395D9F73EF4909580955F
:105AA000709561957F4F8F4F9F4F089557FD905888
:105AB000440F551F59F05F3F71F04795880F97FBD2
:105AC000991F61F09F3F79F087950895121613068C
:105AD0001406551FF2CF4695F1DF08C016161706BB
